{
  "contractName": "Greeter",
  "abi": [
    {
      "constant": true,
      "inputs": [],
      "name": "bidPrice",
      "outputs": [
        {
          "name": "",
          "type": "uint248"
        }
      ],
      "payable": false,
      "stateMutability": "view",
      "type": "function"
    },
    {
      "inputs": [
        {
          "name": "_greeting",
          "type": "string"
        }
      ],
      "payable": false,
      "stateMutability": "nonpayable",
      "type": "constructor"
    },
    {
      "constant": false,
      "inputs": [
        {
          "name": "_greeting",
          "type": "string"
        }
      ],
      "name": "setGreeting",
      "outputs": [],
      "payable": false,
      "stateMutability": "nonpayable",
      "type": "function"
    },
    {
      "constant": true,
      "inputs": [],
      "name": "getGreeting",
      "outputs": [
        {
          "name": "",
          "type": "string"
        }
      ],
      "payable": false,
      "stateMutability": "view",
      "type": "function"
    },
    {
      "constant": false,
      "inputs": [
        {
          "name": "_promotion",
          "type": "string"
        }
      ],
      "name": "setPromoted",
      "outputs": [],
      "payable": true,
      "stateMutability": "payable",
      "type": "function"
    },
    {
      "constant": true,
      "inputs": [],
      "name": "getPromoted",
      "outputs": [
        {
          "name": "",
          "type": "string"
        }
      ],
      "payable": false,
      "stateMutability": "view",
      "type": "function"
    }
  ],
  "bytecode": "0x6060604052341561000f57600080fd5b60405161076c38038061076c8339810160405280805182019190505080600090805190602001906100419291906100c8565b506020604051908101604052806000815250600190805190602001906100689291906100c8565b506101f4600260006101000a8154817effffffffffffffffffffffffffffffffffffffffffffffffffffffffffffff02191690837effffffffffffffffffffffffffffffffffffffffffffffffffffffffffffff1602179055505061016d565b828054600181600116156101000203166002900490600052602060002090601f016020900481019282601f1061010957805160ff1916838001178555610137565b82800160010185558215610137579182015b8281111561013657825182559160200191906001019061011b565b5b5090506101449190610148565b5090565b61016a91905b8082111561016657600081600090555060010161014e565b5090565b90565b6105f08061017c6000396000f30060606040526004361061006d576000357c0100000000000000000000000000000000000000000000000000000000900463ffffffff16806319afe473146100725780634ad4cb03146100dd578063a41368621461012f578063d493ab4f1461018c578063fe50cc721461021a575b600080fd5b341561007d57600080fd5b6100856102a8565b60405180827effffffffffffffffffffffffffffffffffffffffffffffffffffffffffffff167effffffffffffffffffffffffffffffffffffffffffffffffffffffffffffff16815260200191505060405180910390f35b61012d600480803590602001908201803590602001908080601f016020809104026020016040519081016040528093929190818152602001838380828437820191505050505050919050506102d9565b005b341561013a57600080fd5b61018a600480803590602001908201803590602001908080601f016020809104026020016040519081016040528093929190818152602001838380828437820191505050505050919050506103a1565b005b341561019757600080fd5b61019f6103bb565b6040518080602001828103825283818151815260200191508051906020019080838360005b838110156101df5780820151818401526020810190506101c4565b50505050905090810190601f16801561020c5780820380516001836020036101000a031916815260200191505b509250505060405180910390f35b341561022557600080fd5b61022d610463565b6040518080602001828103825283818151815260200191508051906020019080838360005b8381101561026d578082015181840152602081019050610252565b50505050905090810190601f16801561029a5780820380516001836020036101000a031916815260200191505b509250505060405180910390f35b600260009054906101000a90047effffffffffffffffffffffffffffffffffffffffffffffffffffffffffffff1681565b600260009054906101000a90047effffffffffffffffffffffffffffffffffffffffffffffffffffffffffffff167effffffffffffffffffffffffffffffffffffffffffffffffffffffffffffff1634111561039e57806001908051906020019061034592919061050b565b5034600260006101000a8154817effffffffffffffffffffffffffffffffffffffffffffffffffffffffffffff02191690837effffffffffffffffffffffffffffffffffffffffffffffffffffffffffffff1602179055505b50565b80600090805190602001906103b792919061050b565b5050565b6103c361058b565b60018054600181600116156101000203166002900480601f0160208091040260200160405190810160405280929190818152602001828054600181600116156101000203166002900480156104595780601f1061042e57610100808354040283529160200191610459565b820191906000526020600020905b81548152906001019060200180831161043c57829003601f168201915b5050505050905090565b61046b61058b565b60008054600181600116156101000203166002900480601f0160208091040260200160405190810160405280929190818152602001828054600181600116156101000203166002900480156105015780601f106104d657610100808354040283529160200191610501565b820191906000526020600020905b8154815290600101906020018083116104e457829003601f168201915b5050505050905090565b828054600181600116156101000203166002900490600052602060002090601f016020900481019282601f1061054c57805160ff191683800117855561057a565b8280016001018555821561057a579182015b8281111561057957825182559160200191906001019061055e565b5b509050610587919061059f565b5090565b602060405190810160405280600081525090565b6105c191905b808211156105bd5760008160009055506001016105a5565b5090565b905600a165627a7a72305820f60d01474a2ef4f9305ba860a8aca0ce9de065513be77c7988fe03994381d3770029",
  "source": "pragma solidity ^0.4.18;\n\ncontract Greeter {\n    string greeting;\n    string promotion;\n    uint248 public bidPrice;\n\n    function Greeter(string _greeting) public {\n        greeting = _greeting;\n        promotion = \"\";\n        bidPrice = 500;\n\t}\n\n    function setGreeting(string _greeting) public {\n        greeting = _greeting;\n\t}\n\n    function getGreeting() public constant returns (string) {\n        return greeting;\n\t}\n\n    function setPromoted(string _promotion) public payable {\n        if(msg.value > bidPrice) {\n            promotion = _promotion;\n            bidPrice = uint248(msg.value);\n        }\n    }\n\n    function getPromoted() public constant returns (string) {\n        return promotion;\n    }\n}",
  "sourcePath": "/Users/nick/Desktop/Blockchain/greeterapp/greeter/contracts/Greeter.sol",
  "compiler": {
    "name": "solc",
    "version": "0.4.19+commit.c4cbbb05.Emscripten.clang"
  },
  "schemaVersion": "1.0.1",
  "updatedAt": "2018-03-05T05:39:02.694Z"
}